S0120000416374697669646164342E7372656355
S11300000C944F000C946C000C946C000C94490EEE
S11300100C946C000C946C000C946C000C946C00AC
S11300200C946C000C946C000C946C000C940F0EEB
S11300300C946C000C946C000C94B90D0C946C0032
S11300400C946C000C946C000C94210E0C946C00B9
S11300500C946C000C946C000C946C000C946C006C
S11300600C946C000C946C00FC06FC06FC06F30675
S1130070F306F306F306F306F306F306F306F306B4
S1130080F306F306F3066A069806D806EA06FF05A1
S11300903D104610531060106D1078108510112417
S11300A01FBECFEFD8E0DEBFCDBF11E0A0E0B1E0CE
S11300B0E0E4FBE202C005900D92AC30B107D9F741
S11300C024E0ACE0B1E001C01D92AE37B207E1F725
S11300D00E945E0F0C949E150C9400004F925F9248
S11300E06F927F928F929F92AF92BF92CF92DF9244
S11300F0EF92FF92CF93DF93EC016A017B01698158
S11301007A818B819C8189889A88AB88BC88A50177
S113011094010E94D712A70196010E944413181655
S11301200CF063C04D845E846F847888A5019401CB
S1130130C301B2010E94D7129B01AC01C701B601F1
S11301400E94A31488237CF0A3019201C501B40189
S11301500E94D8129B01AC01C701B6010E9444134E
S113016018160CF044C049845A846B847C84A5011D
S11301709401C301B2010E94D7129B01AC01C701D3
S1130180B6010E94A314882374F0A3019201C5014F
S1130190B4010E94D8129B01AC01C701B6010E94B0
S11301A04413181634F54D805E806F807884A50161
S11301B09401C301B2010E94D7129B01AC01C70193
S11301C0B6010E94A3148823B4F0A3019201C501CF
S11301D0B4010E94D8129B01AC01C701B6010E9470
S11301E04413181654F484E009C080E007C083E087
S11301F005C082E003C084E001C081E0DF91CF91BB
S1130200FF90EF90DF90CF90BF90AF909F908F9032
S11302107F906F905F904F900895AC01662339F101
S113022090E023C0292F30E08DE1829FF001839F6D
S1130230F00D1124E40FF51F84A58031A8F48DE19D
S1130240829FF001839FF00D1124E40FF51F82A516
S1130250DF01A80FB11D5A966C9322A52F5F2F7052
S113026022A784A58F5F84A79F5F9330D8F2089557
S1130270FC012789222329F02689E20FF11D8581BB
S1130280089580E00895FC019789992359F086899F
S1130290DF01A80FB11D15961C928F5F8F70868B9E
S11302A09150978B08950F931F93CF938C010E94C5
S11302B06E00C82F882389F08091C801882331F00B
S11302C06C2F88EC91E00E94C60807C08C2F0E9416
S11302D0BA116C2FC8010E940D01CF911F910F918B
S11302E00895EF92FF920F931F93CF93DF9300979C
S11302F009F480C0172F062FF52EE42EEC01188286
S1130300FC01E459FF4F1082118212821382349649
S1130310108211821282138220E030E0A9016E2D36
S11303207F2D802F912F0E94A314181624F0E12C06
S1130330F12C04E313E48E2D9F2DA02FB12F89837C
S11303409A83AB83BC8380E090E0A0EFB2E48D831A
S11303509E83AF83B88780E090E0A8ECB2E48987FD
S11303609A87AB87BC8780E090E0A0EAB2E48D87EF
S11303709E87AF87B88B80E090E0A0E2B1E4898BE0
S11303809A8BAB8BBC8B80E02BC0482F50E09DE157
S1130390949FF001959FF00D1124EC0FFD1F0CEDBF
S11303A015E020E030E0068B178B208F318F15A6E7
S11303B016A617A610AA11AA12A613A614A690E0B0
S11303C00CC02DE1249FF001259FF00D1124EC0FAA
S11303D0FD1FE90FF11D128E9F5F903190F38F5F27
S11303E0833098F281E08D8B82E08AABC15BDF4F72
S11303F083E08883DF91CF911F910F91FF90EF905D
S11304000895009789F0FC01208121110DC021E09D
S11304102083E459FF4F1082118212821382349692
S113042010821182128213820895DC01892BF1F06B
S11304301C9290E00BC0FD018DE1989FE00DF11D31
S1130440112412A613A614A615A69F5F933098F341
S11304500E949F1180E008C09FE1899FF001112450
S1130460E853FE4F158A8F5F8830B0F308958F925A
S11304709F92AF92BF92CF92DF92EF92FF920F932F
S11304801F93CF93DF931F92CDB7DEB7009709F484
S11304905AC0FC012081211105C03091C8013323C9
S11304A009F451C0662391F0223008F04CC022E0D8
S11304B0FC012083E459FF4F1082118212821382BF
S11304C0349610821182128213823DC02230D9F5F3
S11304D08C01FC01E059FF4FC080D180E280F380A1
S11304E0C114D104E104F10421F1349760817181D4
S11304F0828193810E94F1134B015C01C701B60113
S11305000E94F1139B01AC01C501B4010E9449137F
S11305106B017C010E94C213698341E0BE016F5FDD
S11305207F4F8FE50E94B510B701A601C8010E9454
S113053053018091C801882319F0F801108203C087
S113054081E0F80180830F90DF91CF911F910F918B
S1130550FF90EF90DF90CF90BF90AF909F908F90DF
S113056008952F923F924F925F926F927F928F9253
S11305709F92AF92BF92CF92DF92EF92FF920F932E
S11305801F93CF93DF931F92CDB7DEB7009709F483
S113059080C06A017B015C0120E030E0A901C70151
S11305A0B6010E94441388230CF473C0F5018081C2
S11305B0823029F5C701B6010E94C213F501E4593E
S11305C0FF4FC080D180E280F380DC01CB018C0D31
S11305D09D1DAE1DBF1D80839183A283B38334967A
S11305E080819181A281B3810196A11DB11D808377
S11305F09183A283B3833A962CE320834AC0833049
S113060009F047C0F501EC58FF4F1081112309F49C
S113061040C0C701B6010E94C213F501EB58FF4F59
S1130620C080D180E280F3806C0D7D1D8E1D9F1DE6
S113063060837183828393831150319710831123D4
S113064021F036962CE3208324C02DEC3CEC4CECBA
S11306505CEC0E944C1500E20E947915222E332E88
S1130660442E552ED201C101B695A795979587952D
S1130670B695A795979587958983F501E758FF4F18
S113068041E0BE016F5F7F4F80810E94B510F5018C
S113069010820F90DF91CF911F910F91FF90EF90F7
S11306A0DF90CF90BF90AF909F908F907F906F908E
S11306B05F904F903F902F900895EF92FF920F9389
S11306C01F93CF93DF93009709F43FC0FC0120816F
S11306D02223D9F16330C8F5EC01E62EF12C2DE18B
S11306E02E9DC0012F9D900D112445968F01080F5A
S11306F0191F442331F18DE18E9DF0018F9DF00D82
S11307001124EC0FFD1F85A581111FC0C8010E9493
S113071038019DE19E9DF0019F9DF00D1124EC0F89
S1130720FD1F9589891307C081E085A716A617A622
S113073010AA11AA0AC0882341F0C8010E944301EB
S113074004C081E0860F0E940D12DF91CF911F91AA
S11307500F91FF90EF900895CF92DF92EF92FF9266
S11307600F931F93CF93DF9300D000D000D0CDB769
S1130770DEB7009709F4FFC0E62E8C01FC018081EE
S11307808250823000F5E658FF4F8081681718F4D4
S1130790861B808313C08091B30181110AC08AEA49
S11307A091E00E94710784E6F801E658FF4F8083C8
S11307B005C08AE0F801E658FF4F8083F801808184
S11307C0833009F4D8C0F8018081882309F4D3C0A8
S11307D086E0E0E0F1E0DE01119601900D928A9549
S11307E0E1F7F12CC4C0CF2CD12C8DE18C9D90016C
S11307F08D9D300D1124C9014596A801480F591F3C
S1130800F801E20FF31F95A5913049F008F4AEC04A
S1130810923009F43FC0933009F473C09EC08DE157
S11308208C9DF0018D9DF00D1124E00FF11F86A524
S113083097A5A0A9B1A98E0D911DA11DB11D86A7D3
S113084097A7A0ABB1AB46895789608D718D84178A
S11308509507A607B70708F489C0F601EE0FFF1F36
S113086081E090E08C0F9D1FE80FF91F60E080810C
S113087091810E9453118DE18C9DF0018D9DF00DAD
S11308801124E00FF11F16A617A610AA11AA82E0E0
S113089085A76CC08DE18C9DF0018D9DF00D112418
S11308A0E00FF11F86A597A5A0A9B1A98E0D911DF2
S11308B0A11DB11D86A797A7A0ABB1AB803991400C
S11308C0A105B10508F452C0F601EE0FFF1F81E047
S11308D090E08C0F9D1FE80FF91F6AE580819181DC
S11308E00E9453118DE18C9DF0018D9DF00D11241A
S11308F0E00FF11F16A617A610AA11AA83E085A778
S113090035C08DE18C9DF0018D9DF00D1124E00F1B
S1130910F11F86A597A5A0A9B1A98E0D911DA11DB2
S1130920B11D86A797A7A0ABB1AB883C9105A105E3
S1130930B105E0F0CA010E9443012DE12C9DC001E4
S11309402D9D900D11246801C80ED91EF6018589CC
S11309500E948312F60115A609C08DE18C9DF00159
S11309608D9DF00D1124E00FF11F15A6F394F2E014
S1130970FF1508F038CF26960FB6F894DEBF0FBEE9
S1130980CDBFDF91CF911F910F91FF90EF90DF903A
S1130990CF9008954F925F926F927F928F929F9221
S11309A0AF92BF92CF92DF92EF92FF920F931F9379
S11309B0CF93DF9300D000D0CDB7DEB7009709F412
S11309C049C02801390149835A836B837C838C0194
S11309D020E030E0A90169817A818B819C810E94A9
S11309E0A31418164CF489819A81AB81BC81F80157
S11309F085839683A783B08720E030E0A901C301F3
S1130A00B2010E94A31418163CF4D80119964D9211
S1130A105D926D927C921C9720E030E0A901C701A1
S1130A20B6010E94A31418162CF4F801C586D686C4
S1130A30E786F08A20E030E0A901C501B4010E94F4
S1130A40A31418163CF4D80151968D929D92AD9240
S1130A50BC9254970F900F900F900F90DF91CF910D
S1130A601F910F91FF90EF90DF90CF90BF90AF90C8
S1130A709F908F907F906F905F904F9008950F9309
S1130A801F93009769F0633058F4FC015DE1659FA2
S1130A90E00DF11D1124458B068B178B208F318FB0
S1130AA01F910F910895CF92DF92EF92FF92CF930F
S1130AB0DF93009781F06A017B01EC0120E030E0D4
S1130AC0A901C701B6010E94A314181624F4C9820F
S1130AD0DA82EB82FC82DF91CF91FF90EF90DF907E
S1130AE0CF900895009789F023E0FC012083EC580F
S1130AF0FF4F25E0208331961082118212821382E7
S1130B003496608331962CE3208308956F927F920C
S1130B108F929F92AF92BF92CF92DF92EF92FF9209
S1130B200F931F93CF93DF93CDB7DEB72D970FB6F7
S1130B30F894DEBF0FBECDBFE0910C01F0910D0122
S1130B40309709F463C1142F7B01782E82E0781664
S1130B5049F183E07816A1F081E078122EC08081FB
S1130B60811135C060E088EC91E00E94B208809168
S1130B700C0190910D010E9401026624639430C01F
S1130B808081811126C08091C801811124C0CF01C8
S1130B900E94150261E088EC91E00E94B20866248C
S1130BA063941EC0CF010E94150260E088EC91E0BE
S1130BB00E94B2086624639413C0808181110DC021
S1130BC08091C80181110BC06624639409C0612C13
S1130BD007C0612C05C0612C03C0612C01C0612CCD
S1130BE0662009F409C1872D90E0FC013197E431B6
S1130BF0F10508F0F8C0EC5CFF4F0C943715153084
S1130C0008F4F3C0F701608170E080E090E00E9496
S1130C10F11320E030E040E251E40E94A8146A831A
S1130C207B838C839D83F701618170E080E090E099
S1130C300E94F11320E030E040E251E40E94A81445
S1130C406E837F8388879987F701628170E080E0F3
S1130C5090E00E94F11320E030E040E251E40E9471
S1130C60A8146A877B878C879D87F701638170E06E
S1130C7080E090E00E94F11320E030E040E251E493
S1130C800E94A8144B015C01F701648170E080E0CC
S1130C9090E00E94F11320E030E040E251E40E9431
S1130CA0A8149F938F937F936F93CA84DB84EC84FF
S1130CB0FD840E811F81288539854A815B816C8181
S1130CC07D8188EC91E00E9419080F900F900F909D
S1130CD00F9092C0163008F48AC0F70160814181F8
S1130CE08281038110E020E030E0322F212F102F89
S1130CF00027082B848190E0A0E0B0E0DC01992774
S1130D008827082B192B2A2B3B2B858190E0A0E008
S1130D10B0E0B82FAA2799278827082B192B2A2B4C
S1130D203B2B80910C0190910D010E943F0564C002
S1130D30143008F45EC0F701608170E080E090E058
S1130D400E94F1136A837B838C839D83F701618105
S1130D5070E080E090E00E94F1136E837F838887C7
S1130D609987F701628170E080E090E00E94F113BE
S1130D706A877B878C879D87F701638170E080E0B9
S1130D8090E00E94F1134B015C01CA84DB84EC8483
S1130D90FD840E811F81288539854A815B816C81A0
S1130DA07D8180910C0190910D010E94CA0424C0A0
S1130DB0112309F1F701608170E080E090E00E9466
S1130DC0F113AB01BC0180910C0190910D010E94C3
S1130DD0530512C0672D80910C0190910D010E9462
S1130DE07205612C09C0612C07C0612C05C0612CFF
S1130DF003C0612C01C0612C662041F0798241E07E
S1130E00BE016F5F7F4F86E00E94B5102D960FB62E
S1130E10F894DEBF0FBECDBFDF91CF911F910F912C
S1130E20FF90EF90DF90CF90BF90AF909F908F9006
S1130E307F906F900895009741F090930D018093F7
S1130E400C0186E895E00E941B1008950F931F93F0
S1130E50DC0111967C936E9313965C934E931297D8
S1130E6018961C92189719961C9219978CE090E08A
S1130E701C969C938E931B9700E212ED2FE23EE3A7
S1130E801D960D931D932D933C93509761157105F9
S1130E9019F0FB0180E009951F910F910895CF92FD
S1130EA0DF92EF92FF92CF93DF93EC0169017A0115
S1130EB06115710511F07C876B8720E030E0A90192
S1130EC0C701B6010E94A314181624F4CD86DE8649
S1130ED0EF86F88ADF91CF91FF90EF90DF90CF906B
S1130EE00895FC01818581110FC0808581110CC09A
S1130EF08285811109C082E082870190F081E02D12
S1130F00309711F081E009950895CF93DF93FC01A8
S1130F108285882381F08285815082878285811130
S1130F200AC0EF010190F081E02D309709F0099596
S1130F30188681E08987DF91CF910895FC0121858E
S1130F40222351F0442319F0758364830895FC012E
S1130F507783668321E020870895CF93DF93FC0194
S1130F6020852223F1F0EC016681778184819581CB
S1130F70681B790B80E090E00E94F11320E030E0E0
S1130F8040E05FE30E94A8142D853E854F85588973
S1130F900E94A81418861986EA81FB81309709F00B
S1130FA00995DF91CF910895FC01009709F440C0A1
S1130FB01082DC01AF5EBE4F1C9214971D921D92ED
S1130FC01D921C92139780E090E0A0EAB2E4818322
S1130FD09283A383B48380E090E0A8ECB2E4858399
S1130FE09683A783B08780E090E0A8E4B3E4818788
S1130FF09287A387B48780E090E0A6E9B3E485876D
S11310009687A787B08B80E090E0A0EAB1E4818B5B
S1131010928BA38BB48B90E009C0DF018FE1989F82
S1131020A00DB11D112455961C929F5F9830A8F312
S113103008954F925F926F927F928F929F92AF9298
S1131040BF92CF92DF92EF92FF920F931F93CF93B1
S1131050DF93CDB7DEB728970FB6F894DEBF0FBE87
S1131060CDBF009709F467C08D829E82AF82B88697
S1131070460157012801390149835A836B837C83D4
S11310807C0120E030E0A90169817A818B819C8117
S11310900E94A31418164CF489819A81AB81BC81F7
S11310A0F70181839283A383B48320E030E0A90114
S11310B0C301B2010E94A31418163CF4D70115967B
S11310C04D925D926D927C92189720E030E0A901D8
S11310D0C501B4010E94A31418162CF4F7018186EB
S11310E09286A386B48620E030E0A9016D817E81DA
S11310F08F8198850E94A31418164CF48D819E81CB
S1131100AF81B885F70185879687A787B08B20E0E4
S113111030E0A9016B8D7C8D8D8D9E8D0E94A31472
S113112018164CF48B8D9C8DAD8DBE8DF701818B83
S1131130928BA38BB48B28960FB6F894DEBF0FBEA8
S1131140CDBFDF91CF911F910F91FF90EF90DF9072
S1131150CF90BF90AF909F908F907F906F905F9053
S11311604F900895DC01892B81F06C93662351F034
S11311700895FD018FE1989FE00DF11D1124158A5A
S11311809F5F01C090E09830A0F30895009721F08C
S1131190FC01EF5EFE4F608308953F924F925F9291
S11311A06F927F928F929F92AF92BF92CF92DF9273
S11311B0EF92FF920F931F93CF93DF93009709F45D
S11311C039C1FC017081772309F434C1662341F0ED
S11311D0EC01C35FDE4F288339834A835B832AC1D2
S11311E0FC01E35FFE4FC080D180E280F380C11434
S11311F0D104E104F10409F41DC134965080552052
S113120009F418C1BA01A9014C195D096E097F09D5
S113121009F410C1EC01CB01BA010E94F11320E0E2
S113122034E244E759E40E9449134B015C016981AB
S11312307A818B819C81A50194010E9449136B01E1
S11312407C0120E030E04AE754E4C501B4010E9487
S1131250A8144B015C01F4E05F120EC033243A94ED
S113126011C08DE1389EF0011124E051FD4F8589B4
S1131270581641F0339401C0312CE2E0E31588F7AD
S113128033243A9480E0D0C0082F10E09FE1909F6F
S1131290F001919FF00D1124EC0FFD1F9589911120
S11312A0C2C03F0181E0858B568A378A6D817E8179
S11312B08F819885A70196010E94491320E030E0B0
S11312C04AE754E40E94A814A50194010E94D7128D
S11312D00E94BB13F301608F718F828F938F698596
S11312E07A858B859C85A70196010E94491320E08D
S11312F030E04AE754E40E94A814A50194010E9436
S1131300D7120E94BB13F301648F758F868F978F5A
S11313106D857E858F859889A70196010E94491362
S113132020E030E04AE754E40E94A814A5019401A7
S11313300E94D7120E94BB13F30160A371A382A37E
S113134093A3DC01CB0188519C4FAF4FBF4F80A7C3
S113135091A7A2A7B3A7F2E0F31508F440C06989E6
S11313607A898B899C89A70196010E94491320E000
S113137030E04AE754E40E94A8142B013C01E32D19
S1131380F0E03196EE0FFF1FEE0FFF1FEC0FFD1F75
S11313906181728183819481A70196010E9449131E
S11313A020E030E04AE754E40E94A814A501940127
S11313B00E94D7129B01AC01C301B2010E94D81252
S11313C00E94BB132FE1209FF001219FF00D1124F7
S11313D0EC0FFD1F64A375A386A397A310C08FE130
S11313E0809FF001819FF00D1124EC0FFD1F8FE70A
S11313F096E9A8E9B0E084A395A3A6A3B7A38FE1D7
S1131400809FF001819FF00D1124EC0FFD1F14A6A5
S113141015A616A617A610AA11AA12AA13AA868997
S11314200E94BA1104C08F5F883008F42DCFCF5EBC
S1131430DE4F1882DF91CF911F910F91FF90EF90B3
S1131440DF90CF90BF90AF909F908F907F906F90E0
S11314505F904F903F9008954F925F926F927F926A
S11314608F929F92AF92BF92CF92DF92EF92FF92B0
S11314700F931F93CF93DF9300D000D000D0CDB74C
S1131480DEB7009709F49BC1DC012C91222309F4F7
S113149096C1C62E8C0186E0E6E0F1E0DE011196ED
S11314A001900D928A95E1F7D12C85C1ED2CF12C98
S11314B08FE18E9DF0018F9DF00D1124E00FF11F3F
S11314C08589882309F476C18C2D90E0A0E0B0E0F2
S11314D02FE12E9DF0012F9DF00D1124E00FF11F3F
S11314E0408D518D628D738D481B590B6A0B7B0B9C
S11314F0408F518F628F738F848C958CA68CB78CA0
S1131500881A990AAA0ABB0A848E958EA68EB78E6B
S113151080A091A0A2A0B3A0881A990AAA0ABB0A23
S113152080A291A2A2A2B3A284A095A0A6A0B7A0D3
S1131530881A990AAA0ABB0A84A295A2A6A2B7A2EB
S113154080A491A4A2A4B3A424013501481A590A81
S11315506A0A7B0A40A651A662A673A6141615064B
S113156016061706C4F08FE18E9DF0018F9DF00DD5
S11315701124E00FF11F84A581110DC081E00E94A8
S11315800D128FE18E9DF0018F9DF00D1124E00F5F
S1131590F11F81E084A78FE18E9DF0018F9DF00DF6
S11315A01124E00FF11F848D958DA68DB78D18162B
S11315B019061A061B06C4F08FE18E9DF0018F9D5B
S11315C0F00D1124E00FF11F85A581110DC082E0FB
S11315D00E940D128FE18E9DF0018F9DF00D11245C
S11315E0E00FF11F81E085A78FE18E9DF0018F9DB3
S11315F0F00D1124E00FF11F80A191A1A2A1B3A1CC
S1131600181619061A061B06C4F08FE18E9DF00108
S11316108F9DF00D1124E00FF11F86A581110DC0DF
S113162083E00E940D128FE18E9DF0018F9DF00DDD
S11316301124E00FF11F81E086A78FE18E9DF00158
S11316408F9DF00D1124E00FF11F87A5813009F45F
S11316505CC020F0823009F48DC0ACC08FE18E9D57
S1131660F0018F9DF00D1124E00FF11FE789E330A5
S113167080F58E9DD0018F9DB00D1124A00FB11F58
S113168094968D919D910D90BC91A02D18161906DC
S11316901A061B06F4F0F0E0EE0FFF1F66246394B5
S11316A0712C6C0E7D1EE60DF71D60E0808191812A
S11316B00E9453118FE18E9DF0018F9DF00D112436
S11316C0E00FF11F10AA11AA12AA13AA81E087A79A
S11316D071C08FE18E9DF0018F9DF00D1124E00FFC
S11316E0F11F80A591A5A2A5B3A5181619061A067F
S11316F01B060CF45FC08FE18E9DF0018F9DF00DF1
S11317001124E00FF11F158A55C08FE18E9DF00161
S11317108F9DF00D1124E00FF11F80A991A9A2A9BA
S1131720B3A98C0D911DA11DB11D80AB91ABA2ABD2
S1131730B3AB80399140A105B105E0F17F01E789A0
S1131740F0E0EE0FFF1F44244394512C4C0E5D1E19
S1131750E40DF51D6AE5808191810E945311D70142
S1131760D0961D921D921D921C92D39782E09F9653
S11317708C9320C08FE18E9DF0018F9DF00D11247C
S1131780E00FF11F80A991A9A2A9B3A98C0D911D05
S1131790A11DB11D80AB91ABA2ABB3AB883C91054D
S11317A0A105B10538F07F0186890E948312D70113
S11317B055961C92D394B7E0BD1508F077CE2696C3
S11317C00FB6F894DEBF0FBECDBFDF91CF911F914E
S11317D00F91FF90EF90DF90CF90BF90AF909F90CC
S11317E08F907F906F905F904F900895CF93DF9389
S11317F0EC01798368835B834A833D832C83611581
S1131800710519F0FB01099501C080E08E831F82E8
S113181089E18887DF91CF910895662311F0FC0157
S113182060870895CF93DF93DC01ED91FC913097AD
S1131830E1F0EC0109959E818917B1F09F819F5FCA
S11318409F832885921788F08E831F82882331F026
S1131850EA81FB81309749F0099507C0EC81FD814D
S1131860309719F0099501C01F82DF91CF91089537
S1131870882321F08BB180688BB908958BB18F7761
S11318808BB90895882321F085B1806185B90895C5
S113189085B18F7E85B90895882321F085B188604C
S11318A085B9089585B1877F85B9089589B18295F1
S11318B08695877091E089278170089589B186950E
S11318C0869591E089278170089589B186958695DA
S11318D0869591E089278170089589B182958F70EA
S11318E091E0892781700895882321F085B1826071
S11318F085B9089585B18D7F85B90895CF92DF921A
S1131900EF92FF92CF93DF931F92CDB7DEB76B01B7
S11319107C0120E030E0A9010E944413882384F470
S11319208091F002833091F41092F0028FEF89835A
S113193041E0BE016F5F7F4F83E10E94B51006C096
S1131940B701A60180EF92E00E94B1020F90DF91EF
S1131950CF91FF90EF90DF90CF900895CF93DF93D6
S113196000D0CDB7DEB78091F002811104C0809120
S1131970C8018823D9F019821A8242E0BE016F5F40
S11319807F4F8EE50E94B51060E080EF92E00E94E8
S113199037022091110130911201409113015091AD
S11319A0140160E088EC91E00E94CD080F900F9044
S11319B0DF91CF910895CF93DF9300D000D0CDB7BE
S11319C0DEB78091F00281110FC08091C8018111AE
S11319D00BC01B8281E08C8342E0BE016D5F7F4FB0
S11319E08EE50E94B51020C02091110130911201A2
S11319F0409113015091140161E088EC91E00E9440
S1131A00CD08198281E08A8342E0BE016F5F7F4F77
S1131A108EE50E94B51061E080EF92E00E943702EB
S1131A208AEA91E00E9471070F900F900F900F9037
S1131A30DF91CF910895CF93DF9300D0CDB7DEB778
S1131A4081E089838A8342E0BE016F5F7F4F8EE528
S1131A500E94B51041E060E080EF92E00E945D03D7
S1131A600F900F90DF91CF910895CF93DF9300D023
S1131A70CDB7DEB781E089831A8242E0BE016F5F91
S1131A807F4F8EE50E94B51040E060E080EF92E069
S1131A900E945D030F900F90DF91CF910895CF9333
S1131AA0DF9300D0CDB7DEB782E0898381E08A83FB
S1131AB042E0BE016F5F7F4F8EE50E94B51041E0AA
S1131AC061E080EF92E00E945D030F900F90DF9140
S1131AD0CF910895CF93DF9300D0CDB7DEB782E0E6
S1131AE089831A8242E0BE016F5F7F4F8EE50E94B8
S1131AF0B51040E061E080EF92E00E945D030F903A
S1131B000F90DF91CF910895CF93DF9300D0CDB79D
S1131B10DEB783E0898381E08A8342E0BE016F5FA0
S1131B207F4F8EE50E94B51041E062E080EF92E0C5
S1131B300E945D030F900F90DF91CF910895CF9392
S1131B40DF9300D0CDB7DEB783E089831A8242E009
S1131B50BE016F5F7F4F8EE50E94B51040E062E0EA
S1131B6080EF92E00E945D030F900F90DF91CF9180
S1131B7008951F920F920FB60F9211242F933F9343
S1131B804F935F936F937F938F939F93AF93BF9381
S1131B90EF93FF938091110190911201A091130191
S1131BA0B091140188539F4FAF4FBF4F80931101E1
S1131BB090931201A0931301B09314018EED92E05F
S1131BC00E94120C81EA91E00E94120C8FEB91E0CA
S1131BD00E94120C87EE92E00E94120C8AEA91E0B5
S1131BE00E948507809110018F5F809310018A30D5
S1131BF028F0109210018EB381608EBBFF91EF919B
S1131C00BF91AF919F918F917F916F915F914F9110
S1131C103F912F910F900FBE0F901F9018951F9218
S1131C200F920FB60F9211248F938BB18F778BB9CC
S1131C3085B1877E85B98F910F900FBE0F901F904D
S1131C4018951F920F920FB60F9211248F939F93A2
S1131C50AF93BF93EF93FF93EFE6F3E0A081B181DD
S1131C60828191E0980F9283A80FB11D8091C600E4
S1131C708C9392818481815089238283FF91EF9197
S1131C80BF91AF919F918F910F900FBE0F901F90B6
S1131C9018951F920F920FB60F9211242F933F9312
S1131CA04F935F936F937F938F939F93AF93BF9360
S1131CB0EF93FF9360918400709185001A9B02C09A
S1131CC041E001C040E08AEA91E00E949E07FF9152
S1131CD0EF91BF91AF919F918F917F916F915F91A0
S1131CE04F913F912F910F900FBE0F901F90189519
S1131CF00F931F93CF93DF931F92CDB7DEB78EB3AD
S1131D008E7F8EBB80911501882319F0813071F08C
S1131D1010C080911801815080931801811109C06D
S1131D2084E68093180180E283B903C085B18062A0
S1131D3085B980911601909117010196909317012E
S1131D40809316018A3F910560F01092170110925A
S1131D501601198240E0BE016F5F7F4F80EF0E9441
S1131D60B51062E080EF92E00E94AC0362E088EC80
S1131D7091E00E942C0A8091B3018823A1F0809104
S1131D800F018F5F80930F01823178F010920F0161
S1131D90EAEAF1E01186108660E070E080E89FEBEB
S1131DA00E947E0C02C010920F01009184001091D9
S1131DB0850080910E018130A9F018F0823019F16C
S1131DC032C08BB180688BB98AED92E00E94851194
S1131DD0800F911F909389008093880081E0809305
S1131DE00E0123C085B1806185B98BE693E00E9422
S1131DF08511800F911F909389008093880082E061
S1131E0080930E0112C085B1886085B98BEB91E097
S1131E100E948511800F911F909389008093880000
S1131E2010920E0102C010920E0186B3826086BB2E
S1131E30EFE6F0E08081826080830F90DF91CF91A4
S1131E401F910F91089584B18A6384B984B18B7F03
S1131E5084B98AB180688AB98AB1837C8AB98BB122
S1131E608C638BB9089582E084BD91E397BD809320
S1131E706E0083E085BD089582E08093C0001092D7
S1131E80C50080E18093C40086E08093C20088E9A5
S1131E908093C100089584B18B7F84B9109280002F
S1131EA082E080938100E8E6F0E0808181608083B5
S1131EB0EBE6F0E08081846080830895F8940E94CA
S1131EC0061040E050E064E373E480EF92E00E9487
S1131ED0710180EF92E00E941B0788EC91E00E9460
S1131EE0D4070E943C0F0E94230F0E94330F0E94CC
S1131EF04B0F4EE75CE064E77CE08AEA91E00E94E5
S1131F00260720E232ED4FE25EE36CE070E08AEAFD
S1131F1091E00E944F072EEA3CE04BED5CE066E561
S1131F207CE08EED92E00E94F60B25E33DE04BE170
S1131F305DE06EE57CE081EA91E00E94F60B2AE622
S1131F403DE04FE45DE065E67CE08FEB91E00E94CC
S1131F50F60B2FE93DE044E85DE06DE67CE087EEBA
S1131F6092E00E94F60B6EE18EED92E00E940D0C61
S1131F706EE181EA91E00E940D0C6EE18FEB91E03D
S1131F800E940D0C6EE187EE92E00E940D0C68E356
S1131F907CE08AED92E00E94731162E47CE08BE6BF
S1131FA093E00E9473116CE47CE08BEB91E00E945F
S1131FB07311789484E680931801F0990E94780E46
S1131FC0EFE6F3E09381828198130E9420108AEA5D
S1131FD091E00E94AD07E8EFF3E0928183819817C6
S1131FE061F38091C00085FFE8CFA081B181838136
S1131FF091E0980F9383A80FB11D8C918093C60034
S113200093818481815089238383D7CFEFE6F3E0E2
S11320108EEF93E09183808380E88483138212821D
S11320201682E8EFF3E028E733E0318320838483EA
S113203013821282089590931A01809319010895CE
S11320408DC0EFE6F3E0A081B181838191E0980F28
S11320509383A80FB11D2C9193818481815089238E
S11320608383E6818E2F90E08730910508F076C057
S1132070FC01E85BFF4F0C943715253509F06EC061
S1132080EFE6F3E081E08683208768C02E3441F4D4
S1132090EFE6F3E082E086838085282720875EC010
S11320A0109275035BC0253441F4EFE6F3E083E05E
S11320B0868380852827208751C0109275034EC0DF
S11320C0223541F4EFE6F3E084E086838085282717
S11320D0208744C01092750341C0EFE6F3E02783E4
S11320E080852827208785E0868310921B0136C0CF
S11320F02A3341F4EFE6F3E080852827208786E041
S113210086832CC01092750329C0EFE6F3E0908516
S1132110922790878781823050F0E0911B0131E053
S11321203E0F30931B01F0E0E45EFE4F20838150AC
S113213080937603811112C091110EC0E0911901B0
S1132140F0911A01309741F040911B0141506DE12B
S113215071E080911C01099510927503EFE6F3E09C
S11321609381828198136DCF0895CF93DF9352E0CA
S1132170540FE8EFF3E0A081B181928121E0290FAF
S11321802283A90FB11D95E59C93228194819150DE
S113219092239283A081B181928121E0290F22832D
S11321A0A90FB11D9EE49C932281948191509223A6
S11321B09283A081B181928121E0290F2283A90F0A
S11321C0B11D95E49C932281948191509223928332
S11321D0A081B181928121E0290F2283A90FB11D31
S11321E092E59C9332812481215023232283A08170
S11321F0B181928121E0290F2283A90FB11D5C9343
S113220032812481215023232283A081B1819281B0
S113221021E0290F2283A90FB11D9AE39C933281F7
S1132220248121502323228396E39527A081B18121
S1132230228131E0320F3283A20FB11D8C9332819F
S11322402481215023232283892790E017C0E8EFBB
S1132250F3E0A081B181228131E0320F3283A20FF9
S1132260B11DEB01C90FD11D28812C93328124812A
S1132270215023232283288182279F5F941738F3D8
S1132280E8EFF3E0A081B181928121E0290F22835C
S1132290A90FB11D8C9392818481815089238283FB
S11322A0DF91CF910895CF93DF93EC01653B08F064
S11322B064EB262F30E0ACE6B7E00E943D1524EB3A
S11322C030E040E050E00E941515DA01C9018C505D
S11322D09E4FAF4FBF4F9C01220F331F3B832A8376
S11322E0DF91CF910895CF93DF93EC0179836883D5
S11322F06115710519F080E0FB0109956AE5CE01CD
S11323000E945311DF91CF910895FC018281938142
S11323100895CF93DF9300D01F92CDB7DEB78983A2
S11323206A834B8343E0BE016F5F7F4F8DE50E945C
S1132330B5100F900F900F90DF91CF9108951092E8
S1132340600110925C0110925D0110925E01109286
S11323505F0180E00CC0E82FF0E0EE0FFF1FEE0FEE
S1132360FF1FEE0FFF1FEF59FE4F13828F5F883060
S113237090F308950F931F93882309F44BC090E0C2
S113238046C0292F30E0F901EE0FFF1FEE0FFF1FAB
S1132390EE0FFF1FEF59FE4F4381411137C090915B
S11323A060019F5F90936001911103C091E090934D
S11323B06001682F220F331F220F331F220F331F98
S11323C0F901EF59FE4F809160018083618391E0B0
S11323D09283938300915C0110915D0120915E01D1
S11323E030915F010F5F1F4F2F4F3F4F00935C01F0
S11323F010935D0120935E0130935F010483158384
S11324002683378341E00E94891104C09F5F98307E
S113241008F4B7CF1F910F910895CF92DF92EF92F6
S1132420FF920F931F93CF93C1E0C80F90E0CC2489
S1132430CA94DC2C76010FEF30C0292F30E0F9016B
S1132440EE0FFF1FEE0FFF1FEE0FFF1FEF59FE4FA2
S11324504381442309F1F901EE0FFF1FEE0FFF1F23
S1132460EE0FFF1FEF59FE4F4281841315C0220F58
S1132470331F220F331F220F331FF901EF59FE4F71
S113248044815581668177814C155D056E057F0514
S113249018F4092F6A017B019F5F983070F20F3F97
S11324A051F1002E000C110BF801EE0FFF1FEE0F7F
S11324B0FF1FEE0FFF1FEF59FE4FC2834C2F6181A8
S11324C080810E948911C430B1F4F801EE0FFF1F1E
S11324D0EE0FFF1FEE0FFF1FEF59FE4F8181843077
S11324E051F4000F111F000F111F000F111FF801ED
S11324F0EF59FE4F1382CF911F910F91FF90EF90F0
S1132500DF90CF900895CF92DF92EF92FF92CF9316
S1132510DF9390E0CC24CA94DC2C7601CFEF30C05A
S1132520292F30E0F901EE0FFF1FEE0FFF1FEE0F12
S1132530FF1FEF59FE4F4381442309F1F901EE0FC8
S1132540FF1FEE0FFF1FEE0FFF1FEF59FE4F4181DC
S1132550481315C0220F331F220F331F220F331FBE
S1132560F901EF59FE4F44815581668177814C15FD
S11325705D056E057F0518F4C92F6A017B019F5F15
S1132580983070F2CF3F61F088E0C802E001112476
S1132590CF59DE4F45E0698188810E9489111B82F1
S11325A0DF91CF91FF90EF90DF90CF900895505836
S11325B0BB27AA270E94EF120C9469140E945B1493
S11325C038F00E94621420F039F49F3F19F426F485
S11325D00C9458140EF4E095E7FB0C945214E92F74
S11325E00E947A1458F3BA17620773078407950791
S11325F020F079F4A6F50C949C140EF4E0950B2EBF
S1132600BA2FA02D0B01B90190010C01CA01A00140
S11326101124FF27591B99F0593F50F4503E68F19B
S11326201A16F040A22F232F342F4427585FF3CFDC
S1132630469537952795A795F0405395C9F77EF4AD
S11326401F16BA0B620B730B840BBAF09150A1F0F6
S1132650FF0FBB1F661F771F881FC2F70EC0BA0F7C
S1132660621F731F841F48F4879577956795B79504
S1132670F7959E3F08F0B0CF9395880F08F09927FF
S1132680EE0F9795879508950E942E1408F481E023
S113269008950E945D130C9469140E94621458F00A
S11326A00E945B1440F029F45F3F29F00C9452140B
S11326B051110C949D140C9458140E947A1468F3CC
S11326C09923B1F3552391F3951B550BBB27AA27E7
S11326D062177307840738F09F5F5F4F220F331F21
S11326E0441FAA1FA9F335D00E2E3AF0E0E832D0E9
S11326F091505040E695001CCAF72BD0FE2F29D0EC
S1132700660F771F881FBB1F261737074807AB07BD
S1132710B0E809F0BB0B802DBF01FF2793585F4F32
S11327203AF09E3F510578F00C9452140C949D1489
S11327305F3FE4F3983ED4F3869577956795B79514
S1132740F7959F5FC9F7880F911D9695879597F91F
S11327500895E1E0660F771F881FBB1F6217730798
S11327608407BA0720F0621B730B840BBA0BEE1FAD
S113277088F7E09508950E94C2136894B1110C94EF
S11327809D1408950E94821488F09F5798F0B92FE1
S11327909927B751B0F0E1F0660F771F881F991F92
S11327A01AF0BA95C9F714C0B13091F00E949C1484
S11327B0B1E008950C949C14672F782F8827B85F94
S11327C039F0B93FCCF3869577956795B395D9F7EA
S11327D03EF490958095709561957F4F8F4F9F4FF4
S11327E00895E89409C097FB3EF490958095709500
S11327F061957F4F8F4F9F4F9923A9F0F92F96E949
S1132800BB279395F695879577956795B795F111BD
S1132810F8CFFAF4BB0F11F460FF1BC06F5F7F4F5A
S11328208F4F9F4F16C0882311F096E911C077236C
S113283021F09EE8872F762F05C0662371F096E875
S1132840862F70E060E02AF09A95660F771F881F44
S1132850DAF7880F9695879597F90895990F0008E8
S1132860550FAA0BE0E8FEEF16161706E807F9075E
S1132870C0F012161306E407F50798F0621B730BF9
S1132880840B950B39F40A2661F0232B242B252B7A
S113289021F408950A2609F4A140A6958FEF811D1D
S11328A0811D089597F99F6780E870E060E00895BE
S11328B09FEF80EC089500240A9416161706180654
S11328C00906089500240A94121613061406050630
S11328D00895092E0394000C11F4882352F0BB0FC1
S11328E040F4BF2B11F460FF04C06F5F7F4F8F4F24
S11328F09F4F089557FD9058440F551F59F05F3F5F
S113290071F04795880F97FB991F61F09F3F79F00D
S113291087950895121613061406551FF2CF46958F
S1132920F1DF08C0161617061806991FF1CF869511
S11329307105610508940895E894BB2766277727F5
S1132940CB0197F908950E942E1408F48FEF08958F
S11329500E94BB140C9469140E945B1438F00E940A
S1132960621420F0952311F00C9452140C94581412
S113297011240C949D140E947A1470F3959FC1F352
S1132980950F50E0551F629FF001729FBB27F00D19
S1132990B11D639FAA27F00DB11DAA1F649F66276E
S11329A0B00DA11D661F829F2227B00DA11D621FBD
S11329B0739FB00DA11D621F839FA00D611D221F77
S11329C0749F3327A00D611D231F849F600D211D5B
S11329D0822F762F6A2F11249F5750409AF0F1F0DE
S11329E088234AF0EE0FFF1FBB1F661F771F881F47
S11329F091505040A9F79E3F510580F00C94521419
S1132A000C949D145F3FE4F3983ED4F38695779538
S1132A106795B795F795E7959F5FC1F7FE2B880FEC
S1132A20911D9695879597F90895A1E21A2EAA1BF0
S1132A30BB1BFD010DC0AA1FBB1FEE1FFF1FA2176A
S1132A40B307E407F50720F0A21BB30BE40BF50B67
S1132A50661F771F881F991F1A9469F760957095F0
S1132A60809590959B01AC01BD01CF010895EE0FB7
S1132A70FF1F0590F491E02D0994A29FB001B39F2C
S1132A80C001A39F700D811D1124911DB29F700D73
S1132A90811D1124911D0895E894DF93CF93FC01C7
S1132AA0DB010E943D157F936F93E9019A01AC010C
S1132AB0BF93AF933F932F93DF010E943D1526F4FC
S1132AC06C1B7D0B820B930B9E01EB01FC010E949E
S1132AD09515AF91BF912F913F910E949515BE011D
S1132AE0CF01F9012F913F91CF91DF91089597FB89
S1132AF010F8169400080F93083098F00850232F0C
S1132B00342F452F562F672F782F892F902DF4CFF0
S1132B100594979587957795679557954795379534
S1132B2027950A95AAF70F9108950E943D15460F1F
S1132B30571FC81FD91F08F431960895F894FFCF82
S10F2B40DA026B03BB01DA026B03BB0179
S9030000FC
